{
  "transactions": [
    {
      "hash": "0x1cf1c8024b368146322acd16bc5d3f4e79cb0bacacf25f7b339e009e67f81eb5",
      "transactionType": "CALL",
      "contractName": null,
      "contractAddress": "0xefeca27e2641ba1d0e5fc50d9f3450947d3838a6",
      "function": "setStakingFeeAddress(address)",
      "arguments": [
        "0xa9040c08B0FA3D5cf8B1534A0686261Da948F82a"
      ],
      "transaction": {
        "from": "0xa9040c08b0fa3d5cf8b1534a0686261da948f82a",
        "to": "0xefeca27e2641ba1d0e5fc50d9f3450947d3838a6",
        "gas": "0xf83a",
        "value": "0x0",
        "input": "0x4091cb77000000000000000000000000a9040c08b0fa3d5cf8b1534a0686261da948f82a",
        "nonce": "0x74",
        "chainId": "0x2612"
      },
      "additionalContracts": [],
      "isFixedGasLimit": false
    },
    {
      "hash": "0x8340ee8a0ab28062bcb5df99caeed6927262d8654d847ce8f0f484f96973cf47",
      "transactionType": "CALL",
      "contractName": null,
      "contractAddress": "0x83f0a4eaac9c36f9a8252df5b6e3824df2779b3f",
      "function": "setVoter(address)",
      "arguments": [
        "0x736987390d7EC44EEaF55D84b65d2EDE24382ab0"
      ],
      "transaction": {
        "from": "0xa9040c08b0fa3d5cf8b1534a0686261da948f82a",
        "to": "0x83f0a4eaac9c36f9a8252df5b6e3824df2779b3f",
        "gas": "0x9d0d",
        "value": "0x0",
        "input": "0x4bc2a657000000000000000000000000736987390d7ec44eeaf55d84b65d2ede24382ab0",
        "nonce": "0x75",
        "chainId": "0x2612"
      },
      "additionalContracts": [],
      "isFixedGasLimit": false
    },
    {
      "hash": "0x587b9998e27913912762df91583857a929493c6ef06dae3c204e9ff7b61c600b",
      "transactionType": "CALL",
      "contractName": null,
      "contractAddress": "0x794a0a1663c1f66fd67cc4e821c80141abbc6664",
      "function": "setVoter(address)",
      "arguments": [
        "0x736987390d7EC44EEaF55D84b65d2EDE24382ab0"
      ],
      "transaction": {
        "from": "0xa9040c08b0fa3d5cf8b1534a0686261da948f82a",
        "to": "0x794a0a1663c1f66fd67cc4e821c80141abbc6664",
        "gas": "0x9e5d",
        "value": "0x0",
        "input": "0x4bc2a657000000000000000000000000736987390d7ec44eeaf55d84b65d2ede24382ab0",
        "nonce": "0x76",
        "chainId": "0x2612"
      },
      "additionalContracts": [],
      "isFixedGasLimit": false
    },
    {
      "hash": "0x50538f8bf25ea0d0cd95b9cab62b9268de0b0053494d3ea403fd9fdf1d76f94e",
      "transactionType": "CALL",
      "contractName": null,
      "contractAddress": "0x736987390d7ec44eeaf55d84b65d2ede24382ab0",
      "function": "_init(address[],address,address)",
      "arguments": [
        "[]",
        "0x08d004fD1F0F04a4d7C43B2506b30521B09176e2",
        "0x748Df366658B60EE95F7f74108500622D10930d0"
      ],
      "transaction": {
        "from": "0xa9040c08b0fa3d5cf8b1534a0686261da948f82a",
        "to": "0x736987390d7ec44eeaf55d84b65d2ede24382ab0",
        "gas": "0xd2a1",
        "value": "0x0",
        "input": "0x9772e18f000000000000000000000000000000000000000000000000000000000000006000000000000000000000000008d004fd1f0f04a4d7c43b2506b30521b09176e2000000000000000000000000748df366658b60ee95f7f74108500622d10930d00000000000000000000000000000000000000000000000000000000000000000",
        "nonce": "0x77",
        "chainId": "0x2612"
      },
      "additionalContracts": [],
      "isFixedGasLimit": false
    },
    {
      "hash": "0x7b137cf049e736c6aa4cc4a90afb4090686c87bd15a884e37be6b12e3b7be985",
      "transactionType": "CALL",
      "contractName": null,
      "contractAddress": "0x409e7197aa6130781424c12d68c5f0b4d049c123",
      "function": "setMinter(address)",
      "arguments": [
        "0x748Df366658B60EE95F7f74108500622D10930d0"
      ],
      "transaction": {
        "from": "0xa9040c08b0fa3d5cf8b1534a0686261da948f82a",
        "to": "0x409e7197aa6130781424c12d68c5f0b4d049c123",
        "gas": "0x91d6",
        "value": "0x0",
        "input": "0xfca3b5aa000000000000000000000000748df366658b60ee95f7f74108500622d10930d0",
        "nonce": "0x78",
        "chainId": "0x2612"
      },
      "additionalContracts": [],
      "isFixedGasLimit": false
    },
    {
      "hash": "0xbfc70e908de8105072bd56dd364791d97eadbdc1ab6edb9271aee1e0325d8980",
      "transactionType": "CALL",
      "contractName": null,
      "contractAddress": "0x5220d50aeb933bab7638aa352b188202f8f05965",
      "function": "setDepositor(address)",
      "arguments": [
        "0x748Df366658B60EE95F7f74108500622D10930d0"
      ],
      "transaction": {
        "from": "0xa9040c08b0fa3d5cf8b1534a0686261da948f82a",
        "to": "0x5220d50aeb933bab7638aa352b188202f8f05965",
        "gas": "0x9d87",
        "value": "0x0",
        "input": "0xf2c098b7000000000000000000000000748df366658b60ee95f7f74108500622d10930d0",
        "nonce": "0x79",
        "chainId": "0x2612"
      },
      "additionalContracts": [],
      "isFixedGasLimit": false
    }
  ],
  "receipts": [
    {
      "status": "0x1",
      "cumulativeGasUsed": "0xb3b7",
      "logs": [],
      "logsBloom": "0x00000000000000000000000000000000000000000000000000000000000000000000000000000000000000000000000000000000000000000000000000000000000000000000000000000000000000000000000000000000000000000000000000000000000000000000000000000000000000000000000000000000000000000000000000000000000000000000000000000000000000000000000000000000000000000000000000000000000000000000000000000000000000000000000000000000000000000000000000000000000000000000000000000000000000000000000000000000000000000000000000000000000000000000000000000000",
      "type": "0x0",
      "transactionHash": "0x1cf1c8024b368146322acd16bc5d3f4e79cb0bacacf25f7b339e009e67f81eb5",
      "transactionIndex": "0x0",
      "blockHash": "0x93dff00dbd2fa5320cd1a3c7df6f87980f9af60b073f4141a91602ff31819b98",
      "blockNumber": "0x2c1d83",
      "gasUsed": "0xb3b7",
      "effectiveGasPrice": "0x3b9aca00",
      "from": "0xa9040c08b0fa3d5cf8b1534a0686261da948f82a",
      "to": "0xefeca27e2641ba1d0e5fc50d9f3450947d3838a6",
      "contractAddress": null
    },
    {
      "status": "0x1",
      "cumulativeGasUsed": "0x1256b",
      "logs": [],
      "logsBloom": "0x00000000000000000000000000000000000000000000000000000000000000000000000000000000000000000000000000000000000000000000000000000000000000000000000000000000000000000000000000000000000000000000000000000000000000000000000000000000000000000000000000000000000000000000000000000000000000000000000000000000000000000000000000000000000000000000000000000000000000000000000000000000000000000000000000000000000000000000000000000000000000000000000000000000000000000000000000000000000000000000000000000000000000000000000000000000",
      "type": "0x0",
      "transactionHash": "0x8340ee8a0ab28062bcb5df99caeed6927262d8654d847ce8f0f484f96973cf47",
      "transactionIndex": "0x1",
      "blockHash": "0x93dff00dbd2fa5320cd1a3c7df6f87980f9af60b073f4141a91602ff31819b98",
      "blockNumber": "0x2c1d83",
      "gasUsed": "0x71b4",
      "effectiveGasPrice": "0x3b9aca00",
      "from": "0xa9040c08b0fa3d5cf8b1534a0686261da948f82a",
      "to": "0x83f0a4eaac9c36f9a8252df5b6e3824df2779b3f",
      "contractAddress": null
    },
    {
      "status": "0x1",
      "cumulativeGasUsed": "0x19813",
      "logs": [],
      "logsBloom": "0x00000000000000000000000000000000000000000000000000000000000000000000000000000000000000000000000000000000000000000000000000000000000000000000000000000000000000000000000000000000000000000000000000000000000000000000000000000000000000000000000000000000000000000000000000000000000000000000000000000000000000000000000000000000000000000000000000000000000000000000000000000000000000000000000000000000000000000000000000000000000000000000000000000000000000000000000000000000000000000000000000000000000000000000000000000000",
      "type": "0x0",
      "transactionHash": "0x587b9998e27913912762df91583857a929493c6ef06dae3c204e9ff7b61c600b",
      "transactionIndex": "0x2",
      "blockHash": "0x93dff00dbd2fa5320cd1a3c7df6f87980f9af60b073f4141a91602ff31819b98",
      "blockNumber": "0x2c1d83",
      "gasUsed": "0x72a8",
      "effectiveGasPrice": "0x3b9aca00",
      "from": "0xa9040c08b0fa3d5cf8b1534a0686261da948f82a",
      "to": "0x794a0a1663c1f66fd67cc4e821c80141abbc6664",
      "contractAddress": null
    },
    {
      "status": "0x1",
      "cumulativeGasUsed": "0x23092",
      "logs": [],
      "logsBloom": "0x00000000000000000000000000000000000000000000000000000000000000000000000000000000000000000000000000000000000000000000000000000000000000000000000000000000000000000000000000000000000000000000000000000000000000000000000000000000000000000000000000000000000000000000000000000000000000000000000000000000000000000000000000000000000000000000000000000000000000000000000000000000000000000000000000000000000000000000000000000000000000000000000000000000000000000000000000000000000000000000000000000000000000000000000000000000",
      "type": "0x0",
      "transactionHash": "0x50538f8bf25ea0d0cd95b9cab62b9268de0b0053494d3ea403fd9fdf1d76f94e",
      "transactionIndex": "0x3",
      "blockHash": "0x93dff00dbd2fa5320cd1a3c7df6f87980f9af60b073f4141a91602ff31819b98",
      "blockNumber": "0x2c1d83",
      "gasUsed": "0x987f",
      "effectiveGasPrice": "0x3b9aca00",
      "from": "0xa9040c08b0fa3d5cf8b1534a0686261da948f82a",
      "to": "0x736987390d7ec44eeaf55d84b65d2ede24382ab0",
      "contractAddress": null
    },
    {
      "status": "0x1",
      "cumulativeGasUsed": "0x29a28",
      "logs": [],
      "logsBloom": "0x00000000000000000000000000000000000000000000000000000000000000000000000000000000000000000000000000000000000000000000000000000000000000000000000000000000000000000000000000000000000000000000000000000000000000000000000000000000000000000000000000000000000000000000000000000000000000000000000000000000000000000000000000000000000000000000000000000000000000000000000000000000000000000000000000000000000000000000000000000000000000000000000000000000000000000000000000000000000000000000000000000000000000000000000000000000",
      "type": "0x0",
      "transactionHash": "0x7b137cf049e736c6aa4cc4a90afb4090686c87bd15a884e37be6b12e3b7be985",
      "transactionIndex": "0x4",
      "blockHash": "0x93dff00dbd2fa5320cd1a3c7df6f87980f9af60b073f4141a91602ff31819b98",
      "blockNumber": "0x2c1d83",
      "gasUsed": "0x6996",
      "effectiveGasPrice": "0x3b9aca00",
      "from": "0xa9040c08b0fa3d5cf8b1534a0686261da948f82a",
      "to": "0x409e7197aa6130781424c12d68c5f0b4d049c123",
      "contractAddress": null
    },
    {
      "status": "0x1",
      "cumulativeGasUsed": "0x30c35",
      "logs": [],
      "logsBloom": "0x00000000000000000000000000000000000000000000000000000000000000000000000000000000000000000000000000000000000000000000000000000000000000000000000000000000000000000000000000000000000000000000000000000000000000000000000000000000000000000000000000000000000000000000000000000000000000000000000000000000000000000000000000000000000000000000000000000000000000000000000000000000000000000000000000000000000000000000000000000000000000000000000000000000000000000000000000000000000000000000000000000000000000000000000000000000",
      "type": "0x0",
      "transactionHash": "0xbfc70e908de8105072bd56dd364791d97eadbdc1ab6edb9271aee1e0325d8980",
      "transactionIndex": "0x5",
      "blockHash": "0x93dff00dbd2fa5320cd1a3c7df6f87980f9af60b073f4141a91602ff31819b98",
      "blockNumber": "0x2c1d83",
      "gasUsed": "0x720d",
      "effectiveGasPrice": "0x3b9aca00",
      "from": "0xa9040c08b0fa3d5cf8b1534a0686261da948f82a",
      "to": "0x5220d50aeb933bab7638aa352b188202f8f05965",
      "contractAddress": null
    }
  ],
  "libraries": [],
  "pending": [],
  "returns": {},
  "timestamp": 1758691036830,
  "chain": 9746,
  "commit": "9961481"
}