{
  "transactions": [
    {
      "hash": "0x7bc7d4d2e391142a536219f76e49e70335a82df15ac5595eb7202bfc6f74f8ae",
      "transactionType": "CALL",
      "contractName": null,
      "contractAddress": "0xecbb3ae0e0cb7d5adfa6f88c366bb0d44aba986a",
      "function": "setRoleFor(address,string)",
      "arguments": [
        "0xa9040c08B0FA3D5cf8B1534A0686261Da948F82a",
        "GOVERNANCE"
      ],
      "transaction": {
        "from": "0xa9040c08b0fa3d5cf8b1534a0686261da948f82a",
        "to": "0xecbb3ae0e0cb7d5adfa6f88c366bb0d44aba986a",
        "gas": "0x2f90d",
        "value": "0x0",
        "input": "0x9c058964000000000000000000000000a9040c08b0fa3d5cf8b1534a0686261da948f82a0000000000000000000000000000000000000000000000000000000000000040000000000000000000000000000000000000000000000000000000000000000a474f5645524e414e434500000000000000000000000000000000000000000000",
        "nonce": "0xaa",
        "chainId": "0x2612"
      },
      "additionalContracts": [],
      "isFixedGasLimit": false
    }
  ],
  "receipts": [
    {
      "status": "0x1",
      "cumulativeGasUsed": "0x608f4",
      "logs": [
        {
          "address": "0xecbb3ae0e0cb7d5adfa6f88c366bb0d44aba986a",
          "topics": [
            "0x22efbd5010fe3ab1daad601999aba290f97caf7856c253f4f8ec551873be6dee",
            "0x000000000000000000000000a9040c08b0fa3d5cf8b1534a0686261da948f82a",
            "0x35a7846a2a701fff6f9d61a46ebff5da578c5dcee8bdf361c569f9ea4ee64771"
          ],
          "data": "0x",
          "blockHash": "0xdde2fdbb11c566ea7a05ef51911bf42ed1d634b6c61852f672c34e0578f12ccc",
          "blockNumber": "0x2c2f05",
          "blockTimestamp": "0x68d3905e",
          "transactionHash": "0x7bc7d4d2e391142a536219f76e49e70335a82df15ac5595eb7202bfc6f74f8ae",
          "transactionIndex": "0x1",
          "logIndex": "0x3",
          "removed": false
        }
      ],
      "logsBloom": "0x00000200000000000000000000000000000000000000000000000000010000000000000000000040000000000000000000000000000000100100000010000000000000000000000000000000000000000004000000000000000000000000000000000000000000000000000000000000000000000000000000000000000000000000000000000000000000000000000000000000000000100000000000000000000000000000000000000000000000000000010000000000000000000000000000000000000000000000000800000000000000000001000000000000000000000000000000000000000000000000000000000000000000000000000800000000",
      "type": "0x0",
      "transactionHash": "0x7bc7d4d2e391142a536219f76e49e70335a82df15ac5595eb7202bfc6f74f8ae",
      "transactionIndex": "0x1",
      "blockHash": "0xdde2fdbb11c566ea7a05ef51911bf42ed1d634b6c61852f672c34e0578f12ccc",
      "blockNumber": "0x2c2f05",
      "gasUsed": "0x226fe",
      "effectiveGasPrice": "0x3b9aca00",
      "from": "0xa9040c08b0fa3d5cf8b1534a0686261da948f82a",
      "to": "0xecbb3ae0e0cb7d5adfa6f88c366bb0d44aba986a",
      "contractAddress": null
    }
  ],
  "libraries": [],
  "pending": [],
  "returns": {},
  "timestamp": 1758695518800,
  "chain": 9746,
  "commit": "6b56412"
}