{
  "transactions": [
    {
      "hash": "0x05b4d76929dbddba5de8c893f85a71ef66d8fd7bbf9ed5a893101298a5c663a0",
      "transactionType": "CALL",
      "contractName": null,
      "contractAddress": "0xa74848bac41c4b1e6d1cfa6615afb8893805075a",
      "function": "setStakingFeeAddress(address)",
      "arguments": [
        "0xa9040c08B0FA3D5cf8B1534A0686261Da948F82a"
      ],
      "transaction": {
        "from": "0xa9040c08b0fa3d5cf8b1534a0686261da948f82a",
        "to": "0xa74848bac41c4b1e6d1cfa6615afb8893805075a",
        "gas": "0xf83a",
        "value": "0x0",
        "input": "0x4091cb77000000000000000000000000a9040c08b0fa3d5cf8b1534a0686261da948f82a",
        "nonce": "0xa3",
        "chainId": "0x2612"
      },
      "additionalContracts": [],
      "isFixedGasLimit": false
    },
    {
      "hash": "0xfe1cc249361277a158d034f98fe704821f1c028d3c11bc285858612aec5c92b7",
      "transactionType": "CALL",
      "contractName": null,
      "contractAddress": "0x7f38e9a5ca4f8279eceb0ab02ea5291f23e350b8",
      "function": "setVoter(address)",
      "arguments": [
        "0x5C1f4391ad20475D76f4738d3faAF3B170A06919"
      ],
      "transaction": {
        "from": "0xa9040c08b0fa3d5cf8b1534a0686261da948f82a",
        "to": "0x7f38e9a5ca4f8279eceb0ab02ea5291f23e350b8",
        "gas": "0x9d0d",
        "value": "0x0",
        "input": "0x4bc2a6570000000000000000000000005c1f4391ad20475d76f4738d3faaf3b170a06919",
        "nonce": "0xa4",
        "chainId": "0x2612"
      },
      "additionalContracts": [],
      "isFixedGasLimit": false
    },
    {
      "hash": "0x474eb66b04299c5d31d6db05b68a0ba1babe179c9acd2deab063390b3e3d6aaa",
      "transactionType": "CALL",
      "contractName": null,
      "contractAddress": "0x516c42d4bcf32531cb7cf5eb89bb8870a4a60011",
      "function": "setVoter(address)",
      "arguments": [
        "0x5C1f4391ad20475D76f4738d3faAF3B170A06919"
      ],
      "transaction": {
        "from": "0xa9040c08b0fa3d5cf8b1534a0686261da948f82a",
        "to": "0x516c42d4bcf32531cb7cf5eb89bb8870a4a60011",
        "gas": "0x9e5d",
        "value": "0x0",
        "input": "0x4bc2a6570000000000000000000000005c1f4391ad20475d76f4738d3faaf3b170a06919",
        "nonce": "0xa5",
        "chainId": "0x2612"
      },
      "additionalContracts": [],
      "isFixedGasLimit": false
    },
    {
      "hash": "0x47ef216c93ff189fd5b545cad13de24e448403796c3af600e7a589e432b630b9",
      "transactionType": "CALL",
      "contractName": null,
      "contractAddress": "0x5c1f4391ad20475d76f4738d3faaf3b170a06919",
      "function": "_init(address[],address,address)",
      "arguments": [
        "[]",
        "0xEcBb3aE0e0Cb7D5AdFa6F88c366Bb0D44Aba986A",
        "0x4f00b43CD851ac5d5599834f71434f245A92D973"
      ],
      "transaction": {
        "from": "0xa9040c08b0fa3d5cf8b1534a0686261da948f82a",
        "to": "0x5c1f4391ad20475d76f4738d3faaf3b170a06919",
        "gas": "0xdef4",
        "value": "0x0",
        "input": "0x9772e18f0000000000000000000000000000000000000000000000000000000000000060000000000000000000000000ecbb3ae0e0cb7d5adfa6f88c366bb0d44aba986a0000000000000000000000004f00b43cd851ac5d5599834f71434f245a92d9730000000000000000000000000000000000000000000000000000000000000000",
        "nonce": "0xa6",
        "chainId": "0x2612"
      },
      "additionalContracts": [],
      "isFixedGasLimit": false
    },
    {
      "hash": "0x4be10486593088ee3d1a7ecb7338bab74f53c58a3f5fa4ea2cdecf7c17207e60",
      "transactionType": "CALL",
      "contractName": null,
      "contractAddress": "0x3a6a2309bc05b9798cf46699bba9f6536039b72d",
      "function": "initialMint(address)",
      "arguments": [
        "0xa9040c08B0FA3D5cf8B1534A0686261Da948F82a"
      ],
      "transaction": {
        "from": "0xa9040c08b0fa3d5cf8b1534a0686261da948f82a",
        "to": "0x3a6a2309bc05b9798cf46699bba9f6536039b72d",
        "gas": "0x18a79",
        "value": "0x0",
        "input": "0xc268f9ba000000000000000000000000a9040c08b0fa3d5cf8b1534a0686261da948f82a",
        "nonce": "0xa7",
        "chainId": "0x2612"
      },
      "additionalContracts": [],
      "isFixedGasLimit": false
    },
    {
      "hash": "0x741e2ef5fc0ec66fe50f7d0e50937da5d6b593c541e2e839a39e35f724d8ac95",
      "transactionType": "CALL",
      "contractName": null,
      "contractAddress": "0x3a6a2309bc05b9798cf46699bba9f6536039b72d",
      "function": "setMinter(address)",
      "arguments": [
        "0x4f00b43CD851ac5d5599834f71434f245A92D973"
      ],
      "transaction": {
        "from": "0xa9040c08b0fa3d5cf8b1534a0686261da948f82a",
        "to": "0x3a6a2309bc05b9798cf46699bba9f6536039b72d",
        "gas": "0x9a59",
        "value": "0x0",
        "input": "0xfca3b5aa0000000000000000000000004f00b43cd851ac5d5599834f71434f245a92d973",
        "nonce": "0xa8",
        "chainId": "0x2612"
      },
      "additionalContracts": [],
      "isFixedGasLimit": false
    },
    {
      "hash": "0x2f1321b9124a3335f6ce8a3a3f7c7bbdf88f584bf0e0766aef74bd3563ca8aec",
      "transactionType": "CALL",
      "contractName": null,
      "contractAddress": "0xea132ae719aa6280a0f72af3e4ee44dd6888b1ec",
      "function": "setDepositor(address)",
      "arguments": [
        "0x4f00b43CD851ac5d5599834f71434f245A92D973"
      ],
      "transaction": {
        "from": "0xa9040c08b0fa3d5cf8b1534a0686261da948f82a",
        "to": "0xea132ae719aa6280a0f72af3e4ee44dd6888b1ec",
        "gas": "0xa6ba",
        "value": "0x0",
        "input": "0xf2c098b70000000000000000000000004f00b43cd851ac5d5599834f71434f245a92d973",
        "nonce": "0xa9",
        "chainId": "0x2612"
      },
      "additionalContracts": [],
      "isFixedGasLimit": false
    }
  ],
  "receipts": [
    {
      "status": "0x1",
      "cumulativeGasUsed": "0x105bf",
      "logs": [],
      "logsBloom": "0x00000000000000000000000000000000000000000000000000000000000000000000000000000000000000000000000000000000000000000000000000000000000000000000000000000000000000000000000000000000000000000000000000000000000000000000000000000000000000000000000000000000000000000000000000000000000000000000000000000000000000000000000000000000000000000000000000000000000000000000000000000000000000000000000000000000000000000000000000000000000000000000000000000000000000000000000000000000000000000000000000000000000000000000000000000000",
      "type": "0x0",
      "transactionHash": "0x05b4d76929dbddba5de8c893f85a71ef66d8fd7bbf9ed5a893101298a5c663a0",
      "transactionIndex": "0x1",
      "blockHash": "0x2a73ec3ad6778e4cb6f2b359259a06a2fc66797a158cfa6485d0c819236ad853",
      "blockNumber": "0x2c274d",
      "gasUsed": "0xb3b7",
      "effectiveGasPrice": "0x3b9aca00",
      "from": "0xa9040c08b0fa3d5cf8b1534a0686261da948f82a",
      "to": "0xa74848bac41c4b1e6d1cfa6615afb8893805075a",
      "contractAddress": null
    },
    {
      "status": "0x1",
      "cumulativeGasUsed": "0x44cf4",
      "logs": [],
      "logsBloom": "0x00000000000000000000000000000000000000000000000000000000000000000000000000000000000000000000000000000000000000000000000000000000000000000000000000000000000000000000000000000000000000000000000000000000000000000000000000000000000000000000000000000000000000000000000000000000000000000000000000000000000000000000000000000000000000000000000000000000000000000000000000000000000000000000000000000000000000000000000000000000000000000000000000000000000000000000000000000000000000000000000000000000000000000000000000000000",
      "type": "0x0",
      "transactionHash": "0xfe1cc249361277a158d034f98fe704821f1c028d3c11bc285858612aec5c92b7",
      "transactionIndex": "0x3",
      "blockHash": "0x1c038c5c12d9d2755a09183379b9f7a7df8386297117ba130680277df33f98b7",
      "blockNumber": "0x2c274f",
      "gasUsed": "0x71b4",
      "effectiveGasPrice": "0x3b9aca00",
      "from": "0xa9040c08b0fa3d5cf8b1534a0686261da948f82a",
      "to": "0x7f38e9a5ca4f8279eceb0ab02ea5291f23e350b8",
      "contractAddress": null
    },
    {
      "status": "0x1",
      "cumulativeGasUsed": "0x62478",
      "logs": [],
      "logsBloom": "0x00000000000000000000000000000000000000000000000000000000000000000000000000000000000000000000000000000000000000000000000000000000000000000000000000000000000000000000000000000000000000000000000000000000000000000000000000000000000000000000000000000000000000000000000000000000000000000000000000000000000000000000000000000000000000000000000000000000000000000000000000000000000000000000000000000000000000000000000000000000000000000000000000000000000000000000000000000000000000000000000000000000000000000000000000000000",
      "type": "0x0",
      "transactionHash": "0x474eb66b04299c5d31d6db05b68a0ba1babe179c9acd2deab063390b3e3d6aaa",
      "transactionIndex": "0x2",
      "blockHash": "0x056d0acbafbd05bf682fa479f70200dceb434e61fb6ca4124bb1c687aa04e3a2",
      "blockNumber": "0x2c2751",
      "gasUsed": "0x72a8",
      "effectiveGasPrice": "0x3b9aca00",
      "from": "0xa9040c08b0fa3d5cf8b1534a0686261da948f82a",
      "to": "0x516c42d4bcf32531cb7cf5eb89bb8870a4a60011",
      "contractAddress": null
    },
    {
      "status": "0x1",
      "cumulativeGasUsed": "0x552bd",
      "logs": [],
      "logsBloom": "0x00000000000000000000000000000000000000000000000000000000000000000000000000000000000000000000000000000000000000000000000000000000000000000000000000000000000000000000000000000000000000000000000000000000000000000000000000000000000000000000000000000000000000000000000000000000000000000000000000000000000000000000000000000000000000000000000000000000000000000000000000000000000000000000000000000000000000000000000000000000000000000000000000000000000000000000000000000000000000000000000000000000000000000000000000000000",
      "type": "0x0",
      "transactionHash": "0x47ef216c93ff189fd5b545cad13de24e448403796c3af600e7a589e432b630b9",
      "transactionIndex": "0x3",
      "blockHash": "0x1b1a5d0982c2865d4e5dc955891b8088d80a3f5ab111f5fe83ba092deeb7fda0",
      "blockNumber": "0x2c2753",
      "gasUsed": "0x9873",
      "effectiveGasPrice": "0x3b9aca00",
      "from": "0xa9040c08b0fa3d5cf8b1534a0686261da948f82a",
      "to": "0x5c1f4391ad20475d76f4738d3faaf3b170a06919",
      "contractAddress": null
    },
    {
      "status": "0x1",
      "cumulativeGasUsed": "0x1c1a8",
      "logs": [
        {
          "address": "0x3a6a2309bc05b9798cf46699bba9f6536039b72d",
          "topics": [
            "0xddf252ad1be2c89b69c2b068fc378daa952ba7f163c4a11628f55a4df523b3ef",
            "0x0000000000000000000000000000000000000000000000000000000000000000",
            "0x000000000000000000000000a9040c08b0fa3d5cf8b1534a0686261da948f82a"
          ],
          "data": "0x000000000000000000000000000000000000000000295be96e64066972000000",
          "blockHash": "0xb9b7eeb0ea5e3d06b5ab3053639d8ec73717c26a70cbfc2be6dbb4b6329646c6",
          "blockNumber": "0x2c2755",
          "blockTimestamp": "0x68d388ae",
          "transactionHash": "0x4be10486593088ee3d1a7ecb7338bab74f53c58a3f5fa4ea2cdecf7c17207e60",
          "transactionIndex": "0x2",
          "logIndex": "0x0",
          "removed": false
        }
      ],
      "logsBloom": "0x00000000000000000000000000000000000000000000000000000000010000000000000000000000000000000000000000000000000000000100000000000000000000000000000000000008000000000000000000000000000000000020000000000000020000000000000000000800000000000000000000000010000000000000000000000000000000000400000000000000000000000000000000000000000000000000000000000000000000000000000000000000000000000000000000000002000000000000000000001000000000000000000000000000000020000000000000000000000000000000000000000000000000000000000800000000",
      "type": "0x0",
      "transactionHash": "0x4be10486593088ee3d1a7ecb7338bab74f53c58a3f5fa4ea2cdecf7c17207e60",
      "transactionIndex": "0x2",
      "blockHash": "0xb9b7eeb0ea5e3d06b5ab3053639d8ec73717c26a70cbfc2be6dbb4b6329646c6",
      "blockNumber": "0x2c2755",
      "gasUsed": "0x11d98",
      "effectiveGasPrice": "0x3b9aca00",
      "from": "0xa9040c08b0fa3d5cf8b1534a0686261da948f82a",
      "to": "0x3a6a2309bc05b9798cf46699bba9f6536039b72d",
      "contractAddress": null
    },
    {
      "status": "0x1",
      "cumulativeGasUsed": "0x7eb4c",
      "logs": [],
      "logsBloom": "0x00000000000000000000000000000000000000000000000000000000000000000000000000000000000000000000000000000000000000000000000000000000000000000000000000000000000000000000000000000000000000000000000000000000000000000000000000000000000000000000000000000000000000000000000000000000000000000000000000000000000000000000000000000000000000000000000000000000000000000000000000000000000000000000000000000000000000000000000000000000000000000000000000000000000000000000000000000000000000000000000000000000000000000000000000000000",
      "type": "0x0",
      "transactionHash": "0x741e2ef5fc0ec66fe50f7d0e50937da5d6b593c541e2e839a39e35f724d8ac95",
      "transactionIndex": "0x3",
      "blockHash": "0x0d727102439d70df71c11646e2f1958be4f4ddf0b2bee370a0e02ae6717de46a",
      "blockNumber": "0x2c2757",
      "gasUsed": "0x698a",
      "effectiveGasPrice": "0x3b9aca00",
      "from": "0xa9040c08b0fa3d5cf8b1534a0686261da948f82a",
      "to": "0x3a6a2309bc05b9798cf46699bba9f6536039b72d",
      "contractAddress": null
    },
    {
      "status": "0x1",
      "cumulativeGasUsed": "0x4a5ff",
      "logs": [],
      "logsBloom": "0x00000000000000000000000000000000000000000000000000000000000000000000000000000000000000000000000000000000000000000000000000000000000000000000000000000000000000000000000000000000000000000000000000000000000000000000000000000000000000000000000000000000000000000000000000000000000000000000000000000000000000000000000000000000000000000000000000000000000000000000000000000000000000000000000000000000000000000000000000000000000000000000000000000000000000000000000000000000000000000000000000000000000000000000000000000000",
      "type": "0x0",
      "transactionHash": "0x2f1321b9124a3335f6ce8a3a3f7c7bbdf88f584bf0e0766aef74bd3563ca8aec",
      "transactionIndex": "0x2",
      "blockHash": "0xed848ac2ef43e1460df1e3257ba5b2f354f4b1bba12fc62c32c4b9f2c887e0a9",
      "blockNumber": "0x2c2759",
      "gasUsed": "0x7201",
      "effectiveGasPrice": "0x3b9aca00",
      "from": "0xa9040c08b0fa3d5cf8b1534a0686261da948f82a",
      "to": "0xea132ae719aa6280a0f72af3e4ee44dd6888b1ec",
      "contractAddress": null
    }
  ],
  "libraries": [],
  "pending": [],
  "returns": {},
  "timestamp": 1758693554934,
  "chain": 9746,
  "commit": "a7f1d02"
}